:100000000C947C000C94A4000C94A4000C94A40008
:100010000C94A4000C94A4000C94A4000C94A400D0
:100020000C94A4000C94A4000C94A4000C948C04D4
:100030000C94A4000C94A4000C94A4000C94A400B0
:100040000C9439030C94A4000C941C020C94F6013B
:100050000C94A4000C94A4000C94A4000C94A40090
:100060000C94A4000C94A400A20B190CE30BCB0B72
:10007000630B630B9C0B630B9C0B630B9C0B9C0B2C
:100080009C0B630B9C0B9C0B05A84CCDB2D44EB9BA
:100090003836A9020C50B9918688083CA6AAAA2A2B
:1000A000BE000000803F00000008000201000003C5
:1000B0000407000000000000000000000000250010
:1000C00028002B0000000000240027002A00040460
:1000D00004040404040402020202020203030303F0
:1000E00003030102040810204080010204081020CC
:1000F000010204081020380D11241FBECFEFD4E0F8
:10010000DEBFCDBF11E0A0E0B1E0E4EFF1E202C05C
:1001100005900D92A833B107D9F723E0A8E3B1E029
:1001200001C01D92A831B207E1F710E0CCE7D0E0A2
:1001300004C02197FE010E94ED10CB37D107C9F70B
:100140000E94FD060C94F8100C940000089580E0C5
:1001500090E00895FC01538D448D252F30E0842FCD
:1001600090E0821B930B541710F0CF9608950197DF
:100170000895FC01918D828D981761F0828DDF01C9
:10018000A80FB11D5D968C91928D9F5F9F73928F8A
:1001900090E008958FEF9FEF0895FC01918D828D7F
:1001A000981731F0828DE80FF11D858D90E008954C
:1001B0008FEF9FEF0895FC01918D228D892F90E0A4
:1001C000805C9F4F821B91098F739927089580EC63
:1001D00091E00E94DB0021E0892B09F420E0822FCE
:1001E0000895FC01848DDF01A80FB11DA35ABF4FF4
:1001F0002C91848D90E001968F739927848FA68926
:10020000B7892C93A089B1898C9180648C93938D4C
:10021000848D981306C00288F389E02D80818F7D3C
:1002200080830895EF92FF920F931F93CF93DF93F4
:10023000EC0181E0888F9B8D8C8D981305C0E88937
:10024000F989808185FD24C0F62E0B8D10E00F5FAB
:100250001F4F0F731127E02E8C8DE8120CC00FB6C4
:1002600007FCFACFE889F989808185FFF5CFCE01B7
:100270000E94F100F1CF8B8DFE01E80FF11DE35AD2
:10028000FF4FF0820B8FEA89FB898081806207C073
:10029000EE89FF896083E889F989808180648083A1
:1002A00081E090E0DF91CF911F910F91FF90EF904F
:1002B0000895CF93DF93EC01888D8823C9F0EA89F4
:1002C000FB89808185FD05C0A889B9898C9186FD4F
:1002D0000FC00FB607FCF5CF808185FFF2CFA8894C
:1002E000B9898C9185FFEDCFCE010E94F100E7CF57
:1002F000DF91CF91089580E090E0892B29F00E9452
:10030000E70081110C940000089590E0FC01EA558B
:10031000FF4F3491FC01EE51FF4F2491FC01E25359
:10032000FF4FE491EE2309F43BC0332339F133301E
:1003300091F038F43130A9F0323001F584B58F7D79
:1003400012C0373091F03830A1F03430B9F48091D8
:1003500080008F7D03C0809180008F778093800024
:100360000DC084B58F7784BD09C08091B0008F77B0
:1003700003C08091B0008F7D8093B000F0E0EE0F5D
:10038000FF1FE654FF4FA591B4918FB7F894EC91FD
:10039000611103C020952E2301C02E2B2C938FBFFB
:1003A00008953FB7F89480916B0190916C01A091F2
:1003B0006D01B0916E0126B5A89B05C02F3F19F0C5
:1003C0000196A11DB11D3FBFBA2FA92F982F8827D5
:1003D000820F911DA11DB11DBC01CD0142E0660F30
:1003E000771F881F991F4A95D1F708951F920F9282
:1003F0000FB60F9211242F933F934F935F936F93F8
:100400007F938F939F93AF93BF93EF93FF9380EC72
:1004100091E00E94F100FF91EF91BF91AF919F9108
:100420008F917F916F915F914F913F912F910F909D
:100430000FBE0F901F9018951F920F920FB60F923C
:1004400011242F938F939F93EF93FF93E091D0010B
:10045000F091D1018081E091D601F091D70182FD28
:1004600012C090818091D9018F5F8F732091DA0142
:10047000821751F0E091D901F0E0E054FE4F958FE2
:100480008093D90101C08081FF91EF919F918F915D
:100490002F910F900FBE0F901F9018951F93CF9321
:1004A000DF93182FEB010E94C205209711F460E042
:1004B00004C0CF3FD10539F461E0812FDF91CF91A6
:1004C0001F910C948501E12FF0E0EA55FF4FE49174
:1004D000E330F9F048F4E130B9F0E230A1F584B549
:1004E000806284BDC8BD34C0E730E9F0E83019F15E
:1004F000E43049F580918000806280938000D09341
:100500008B00C0938A0024C084B5806884BDC7BDB9
:100510001FC080918000806880938000D093890004
:10052000C093880015C08091B00080688093B000AF
:10053000C093B3000DC08091B00080628093B00082
:10054000C093B40005C0C038D1050CF0B5CFAFCF13
:10055000DF91CF911F910895613461F128F46C33DC
:1005600051F06E33B9F00895653421F1673411F11B
:10057000633421F51FC0242F30E0AFEFB0E00E94BC
:10058000340F2FE730E040E050E00E94020FB90145
:1005900086E00EC0242F30E0AFEFB0E00E94340FB1
:1005A0002FE730E040E050E00E94020FB90185E003
:1005B0000C944E0268EE8DE00C94850108958F92A4
:1005C0009F92AF92BF92CF92DF92EF92FF926B0118
:1005D0007C010E94D1014B015C01C114D104E104F2
:1005E000F104F1F00E94D101DC01CB0188199909D5
:1005F000AA09BB09883E9340A105B10570F321E02B
:10060000C21AD108E108F10888EE880E83E0981E2E
:10061000A11CB11CC114D104E104F10419F7DDCF10
:10062000FF90EF90DF90CF90BF90AF909F908F9012
:10063000089561E08CE00E94850168EE73E080E03F
:1006400090E00E94DF0260E08CE00E94850168EE8D
:1006500073E080E090E00C94DF022FB7F894609193
:100660006701709168018091690190916A012FBFC3
:1006700008951F920F920FB60F9211242F933F935C
:100680008F939F93AF93BF9380916701909168017F
:10069000A0916901B0916A013091660123E0230FB6
:1006A0002D3720F40196A11DB11D05C026E8230FAA
:1006B0000296A11DB11D209366018093670190935E
:1006C0006801A0936901B0936A0180916B019091D8
:1006D0006C01A0916D01B0916E010196A11DB11D3B
:1006E00080936B0190936C01A0936D01B0936E01A8
:1006F000BF91AF919F918F913F912F910F900FBE1E
:100700000F901F901895CF92DF92EF92FF92CF93A8
:10071000DF93EC01603282E078070CF03DC077FD9A
:1007200006C0653B71052CF064EB70E002C060E030
:1007300070E0898128E830E06901C81AD10887FD96
:10074000D394CC0CDD1CCC0CDD1C0D2C000CEE0865
:10075000FF088A8128E532E0281B310987FD33959F
:10076000220F331F220F331FC901330FAA0BBB0BFC
:100770009C01AD012C193D094E095F09DB010E9466
:100780002C0F24EB30E040E050E00E94020FC20E3C
:10079000D31EE41EF51EB60188818C3080F5998148
:1007A00048E850E0491B510997FD5395440F551FE8
:1007B000440F551F6417750784F09A8128E532E0CD
:1007C000291B310997FD3395220F331F220F331F49
:1007D000AB01261737070CF4A90142505109440F09
:1007E000551F2FB7F89490E0FC01EE0FFF1F8E0FFE
:1007F0009F1FFC01EE5BFE4F528341832FBFDF91B1
:10080000CF91FF90EF90DF90CF9008950F931F93BB
:10081000CF93DF931F92CDB7DEB78C01DC018C91B3
:100820008C3008F055C0862F69830E94C205F801FC
:100830008081E82FF0E09F01220F331FE20FF31FAA
:10084000EE5BFE4F69816F739081907C692B6083B2
:10085000D80111961C92119712961C926CE00E947E
:10086000E110BCE08B9FB001112440E050E09A0100
:10087000260F371FF901EE0FFF1F2E0F3F1FF90143
:10088000EE5BFE4F908196FD16C04F5F5F4F4C3080
:10089000510569F781110FC01092800082E08093AA
:1008A00081001092850010928400B19A80916F00AF
:1008B000826080936F00D801EC91F0E0CF01880F47
:1008C000991FE80FF91FEE5BFE4F808180648083E3
:1008D000F80180810F90DF91CF911F910F910895C2
:1008E000FC01909141019C30A0F481E0890F80933C
:1008F00041019083892F90E0FC01EE0FFF1F8E0FC6
:100900009F1FFC01EE5BFE4F88EB9BE0928381838F
:1009100008958FEF808308951F920F920FB60F9264
:1009200011242F933F934F935F936F937F938F93F4
:100930009F93AF93BF93EF93FF938091400187FF05
:1009400005C010928500109284001BC020914001C8
:10095000022E000C330B8091410190E028173907DB
:1009600084F480914001082E000C990BFC01EE0FDD
:10097000FF1F8E0F9F1FFC01EE5BFE4F808186FDE7
:1009800015C0809140018F5F80934001209140010C
:10099000022E000C330B8091410190E0281739079B
:1009A000C4F4809140018C3064F113C08091400107
:1009B000082E000C990BFC01EE0FFF1F8E0F9F1FDE
:1009C000FC01EE5BFE4F808160E08F730E94850129
:1009D000D8CF8091840090918500049680349C4902
:1009E00018F480E49CE905C0809184009091850012
:1009F000049690938900809388008FEF8093400144
:100A00003BC0209184003091850080914001082EE8
:100A1000000C990BFC01EE0FFF1F8E0F9F1FFC01B6
:100A2000EE5BFE4F81819281820F931F909389002C
:100A30008093880080914001082E000C990BFC01E6
:100A4000EE0FFF1F8E0F9F1FFC01EE5BFE4F80819C
:100A500086FF12C080914001082E000C990BFC010A
:100A6000EE0FFF1F8E0F9F1FFC01EE5BFE4F80817C
:100A700061E08F730E948501FF91EF91BF91AF916B
:100A80009F918F917F916F915F914F913F912F91A6
:100A90000F900FBE0F901F9018956D3F71053CF49D
:100AA0006A3F710554F4683F710589F406C09B01E3
:100AB0002E5F31092230310550F4DC018D919C917B
:100AC000DC01ED91FC910190F081E02D09940895F5
:100AD00087FF0DC09CE0980F923048F0982F9B7FC5
:100AE000993F29F0803F08F4807F90E0089580E0EE
:100AF00090E008959C018F7C8038910561F0203D45
:100B0000310549F081E0203E310539F0203C3105C6
:100B100021F080E0089581E008950895DC01ED91D1
:100B2000FC910190F081E02D0994CF92DF92EF9239
:100B3000FF920F931F93CF93DF936C017A018B0188
:100B4000C0E0D0E0CE15DF0589F0D8016D918D01B0
:100B5000D601ED91FC910190F081E02DC60109953F
:100B6000892B11F47E0102C02196ECCFC701DF91E1
:100B7000CF911F910F91FF90EF90DF90CF9008954C
:100B80000E94F31090E0FC01EE51FF4F2491FC0114
:100B9000E253FF4F8491882399F090E0880F991FCA
:100BA000FC01EC53FF4FA591B491FC01E654FF4FBB
:100BB000859194918FB7F894EC91E22BEC938FBFD1
:100BC00008951F93CF93DF93182FC0E0D0E0BE01AC
:100BD0000D2E000C880B990B0E94E70D2BED3FE0CA
:100BE00049EC50E40E94220E20E030E04FE753E44D
:100BF0000E94430F0E94EB0F20E030E04FE753E4E8
:100C00000E94220E0E94B50F812F0E944E0263E0C7
:100C100070E080E090E00E94DF022196CF3FD10596
:100C2000B1F6DF91CF911F9108958F929F92AF926D
:100C3000BF92CF92DF92EF92FF926B017C010E94F4
:100C40002D034B015C01C60ED71EE81EF91E0E9443
:100C50002D03681579058A059B0528F0C616D70669
:100C6000E806F906A0F7FF90EF90DF90CF90BF90D5
:100C7000AF909F908F900895EF92FF921F93CF9324
:100C8000DF931F92CDB7DEB77C01162F21502031A4
:100C900008F04EC080E8E816F1040CF449C0A1EE5B
:100CA000EA16F104ACF58091810290918202DC0198
:100CB000ED91FC916E2D622B0190F081E02D498326
:100CC00009958091810290918202DC01ED91FC9165
:100CD000612F6F770190F081E02D0995E894E4F899
:100CE0004981B0ECEB16F10419F1809181029091E9
:100CF0008202DC01ED91FC91642F6F770190F0810D
:100D0000E02D0F90DF91CF911F91FF90EF9009940C
:100D1000C701885F9109089758F4B70181E892E00C
:100D20000F90DF91CF911F91FF90EF900C944D05A4
:100D30000F90DF91CF911F91FF90EF900895611573
:100D4000710579F0FB0101900020E9F73197AF01BF
:100D5000461B570BDC01ED91FC910280F381E02DE5
:100D6000099480E090E008954F925F926F927F9295
:100D7000EF92FF920F931F93CF93DF93CDB7DEB720
:100D8000A1970FB6F894DEBF0FBECDBF7C01FA016C
:100D9000CB0119A2223008F42AE08E010F5D1F4F0B
:100DA000422E512C612C712CBF01A30192010E9493
:100DB000E00EF901CA01015011096A3014F4605DB6
:100DC00001C0695CD8016C93232B242B252B61F780
:100DD000B801C7010E949F06A1960FB6F894DEBF26
:100DE0000FBECDBFDF91CF911F910F91FF90EF907C
:100DF0007F906F905F904F900895CF93DF931F92F5
:100E0000CDB7DEB7789484B5826084BD84B5816047
:100E100084BD85B5826085BD85B5816085BD8091C5
:100E20006E00816080936E0010928100809181003D
:100E30008260809381008091810081608093810035
:100E4000809180008160809380008091B1008460F7
:100E50008093B1008091B00081608093B000809158
:100E60007A00846080937A0080917A008260809317
:100E70007A0080917A00816080937A0080917A0074
:100E8000806880937A001092C1001092B301109292
:100E9000B4011092B5011092B60110927101109236
:100EA0007201109273011092740168EB7BE080E094
:100EB00090E00E94150680EC91E09093B20180933F
:100EC000B101E091D001F091D10112E01083E091E5
:100ED000CC01F091CD011082E091CE01F091CF01D3
:100EE00080E180831092D801E091D401F091D50186
:100EF00006E00083E091D201F091D301808180610E
:100F00008083E091D201F091D30180818860808359
:100F1000E091D201F091D301808180688083E091DB
:100F2000D201F091D30180818F7D80830E942D03B7
:100F300060937101709372018093730190937401B7
:100F400062E171E08091B1019091B2010E949F062F
:100F50006AE070E080E090E00E94150681E08093F6
:100F600085016AE070E08DEB91E00E9406046BE081
:100F700070E08AEB91E00E94060469E070E087EB84
:100F800091E00E94060483E00E94C2058DE00E9469
:100F9000C2058CE00E94C20586E00E94C20585E081
:100FA0000E94C20586E090E00E94E10585E090E0A5
:100FB0000E94E10585E090E00E94E1058DE090E06F
:100FC0000E94E1058CE090E00E94E1056AE070E09B
:100FD0008AEB91E00E9483036AEA70E08DEB91E076
:100FE0000E94830368EE73E080E090E00E94DF02DD
:100FF0006AE570E08AEB91E00E9483036AE570E0A5
:101000008DEB91E00E94830368EE73E080E090E056
:101010000E94DF0268E270E08AEB91E00E948303A5
:1010200068E270E08DEB91E00E94830368EE73E06C
:1010300080E090E00E94DF028CEA92E090936002F0
:1010400080935F0289E193E090935E0280935D025A
:10105000E0918102F0918202A089B1891C93A4855C
:10106000B5851C92A685B7858FE38C93108EA489D5
:10107000B5890C93A289B3898C9180618C93A289E4
:10108000B3898C9188608C93A289B3898C91806894
:101090008C930288F389E02D80818F7D808310926C
:1010A0008302109285021092840210928C02109298
:1010B0008B0210928A02109289028FEF9FEF909319
:1010C0008E0280938D029093900280938F021092F3
:1010D00017031092940210929302109292021092AF
:1010E00095021092960280919102817082608160D7
:1010F0008093910264EF862E99249394A12CB12CB5
:1011000000E810E0DD24D39472E0272E312CEE2489
:10111000E394F12C0E942D03672B682B692B41F47B
:101120000E942D03623071058105910508F40BC101
:101130000E942D0360933C0170933D0180933E011A
:1011400090933F01209138013091390140913A014B
:1011500050913B01621773078407950740F4609331
:1011600038017093390180933A0190933B0140908C
:1011700038015090390160903A0170903B019B0119
:10118000AC01241935094609570929013A013AEFFA
:10119000431651046104710408F4D5C0609338010A
:1011A0007093390180933A0190933B0180927D01C5
:1011B00090927E01A0927F01B092800110928101F5
:1011C0001092820110928301109284018091750126
:1011D00090917601A0917701B09178018093790187
:1011E00090937A01A0937B01B0937C010E942D0320
:1011F00060937501709376018093770190937801E5
:101200000E942D03609371017093720180937301AA
:10121000909374010E942D032B013C0164E271E064
:101220008091B1019091B2010E949F062AE041E0B5
:1012300050E060E070E08091B1019091B2010E94B5
:10124000B4066BE271E08091B1019091B2010E940D
:101250009F062AE0B301A2018091B1019091B201F1
:101260000E94B4066DE271E08091B1019091B201EB
:101270000E949F068091750190917601A09177015F
:10128000B0917801B301A201481B590B6A0B7B0B8B
:101290002AE08091B1019091B2010E94B4066DE202
:1012A00071E08091B1019091B2010E949F0640913E
:1012B000750150917601609177017091780180916C
:1012C000790190917A01A0917B01B0917C01481B3A
:1012D000590B6A0B7B0B2AE08091B1019091B2010E
:1012E0000E94B4066FE271E08091B1019091B20169
:1012F0000E949F060E942D03AB01BC012AE0809151
:10130000B1019091B2010E94B4066090B101709059
:10131000B20161E371E0C3010E949F0661E271E0E6
:10132000C3010E949F0665E070E080E090E00E94AB
:1013300015060E942D0360937501709376018093CA
:10134000770190937801C090830240E14C1508F436
:10135000BAC18091810290918202DC01ED91FC91F1
:101360000084F185E02D0995892B09F4ACC18091A9
:10137000810290918202DC01ED91FC910284F3855F
:10138000E02D09952C018B7F893F09F49CC12091A8
:101390008B0230918C022115310509F0ADC04092CD
:1013A000860270908402872D0E9468050E947A054B
:1013B000882351F047FC08C0709286024092870251
:1013C000F0928C02E0928B0270908602872D0E9430
:1013D0006805813F910509F45EC074F5803B910575
:1013E00009F45EC06CF48039910509F459C0803A63
:1013F000910509F455C08038910509F0D9C050C055
:10140000803D910509F447C02CF4803C910509F416
:1014100042C0CEC0803E910509F442C0803F910594
:1014200009F0C6C010938A020093890210928402C8
:1014300030EF309397023AC0883F9105B9F044F4F9
:10144000833F910541F164F1863F910579F0B0C089
:101450008A3F91050CF4ACC08D3F91053CF09C0196
:101460002E5F31092230310508F0A2C0909394021A
:10147000809393021092920210929502109296021B
:10148000D092170310928C0210928B0210928A0253
:1014900010928902F3C030928A022092890206C01B
:1014A00023E030E030938A022093890220918B025E
:1014B00030918C024091890250918A024150510929
:1014C0002417350708F4D3C09093940280939302B5
:1014D000872D8F708F5F8093920280918702809317
:1014E00095021092960210928C0210928B0210922A
:1014F0008A021092890221C047FE44C0C201992786
:101500008D3F910554F48A3F91056CF4873F910516
:10151000B9F0883F9105B1F506C0AC014E5F5109A5
:101520004230510578F59093940280939302109283
:1015300095021092960210929202D09217039EC0CA
:1015400080919702803FA1F5C9010196F901E35A04
:10155000FD4F47EF42AFA0EFB0E0B0939402A093ED
:101560009302809395029093960210929202D092E9
:10157000170310928C0210928B0210928A02109222
:10158000890272C080918602F901E35AFD4F803FC3
:10159000D1F442AE6090890270908A02C301019733
:1015A0002817390708F463C020918602203F69F4A8
:1015B00010928C0210928B0210928A021092890271
:1015C0001092840280C041A6E5CF822F29830E9419
:1015D00068052C0190939402809393020E947A05EF
:1015E0002981882331F0822F8F708F5F8093920240
:1015F00002C0109292028091870280939502B3E01C
:101600006B16710419F48091880201C080E0809308
:10161000960210928C0210928B0210928A02109203
:101620008902D092170330EB43165104D1F06CF4C9
:1016300050E945165104A9F080EA4816510489F092
:10164000A0E84A16510481F40CC0B0ED4B165104C9
:1016500041F030EE4316510421F040EC44165104A1
:1016600019F4209384020AC01092840207C02F5FED
:101670003F4F30938C0220938B0225C080919302C0
:10168000909194028039910529F4809196028823E3
:1016900009F4F4C080919302909194029C01205827
:1016A00031092136310508F0EEC0209192022C1547
:1016B00009F4E9C0CC2009F4E6C040919102642FFE
:1016C000617040FD03C00E947B0124CD842F8E7F7A
:1016D000D1F380919302909194029C01205831099A
:1016E00021363105F8F4209192022C1519F061E0B1
:1016F000C11060E0469550E04230510539F043306A
:10170000510539F041305105F1F605C06623D9F293
:1017100002C06111D8CF40919602609195020E945B
:101720003C06D1CFFC01E05FF109E031F10558F64C
:10173000EC5CFF4F0C94ED10BC0181E892E00E943C
:101740004D05C1CF8091960290E0582E442480919F
:101750009502482AB1E84B16510418F030E8432EA0
:10176000512C612C712C6414750409F4ACCF809158
:10177000810290918202DC01ED91FC91D301A35A88
:10178000BD4F0190F081E02DDA966C910995BFEF85
:101790006B1A7B0AE8CFC0909502809181029091EC
:1017A0008202DC01ED91FC910190F081E02D63EF6C
:1017B00009956C2D6F7770E0809181029091820283
:1017C0000E948E0580CF90919602B0E89B9F3001D9
:1017D000112480919502682A809181029091820261
:1017E000DC01ED91FC910190F081E02D62EF099513
:1017F0008091810290918202DC01ED91FC91B30114
:101800006F7777270190F081E02D09958091810213
:1018100090918202DC01ED91FC91B301660F672F7C
:10182000661F770B71956F7777270190F081E02D18
:1018300023C0809195028770B0E18B9FC001112475
:10184000909196029F70C92EC82A80918102909132
:101850008202DC01ED91FC910190F081E02D61EFBD
:1018600009958091810290918202DC01ED91FC91B9
:101870000190F081E02D6C2D099525CF10939402F5
:101880000093930207CF813F9105C1F4E0916D026F
:10189000F0916E020CC08B3F91050CF0C8C0833FE5
:1018A000910509F0A5C0E0917102F09172023097A4
:1018B00009F403CF809195020995FFCE823F9105EF
:1018C0000CF080C0803B9105C1F4E0916302F0917F
:1018D000640208C08038910509F0EFCEE0915D0206
:1018E000F0915E02309709F4E8CE40919602609143
:1018F0009502809192020995E0CE813B910584F496
:101900008039910529F4E0915F02F0916002EACFFD
:10191000803A9105F9F6E0916102F0916202E2CF1E
:10192000803D910529F4E0916702F09168020BC0B7
:10193000813D91058CF4803C910509F0BECEE0918B
:101940006502F0916602309709F4B7CE6091950276
:10195000809192020995B1CE803E9105B9F4E09153
:101960006902F0916A02309709F4A7CE609196025D
:101970006F7750E8659FB0011124809195028F77B1
:10198000682B705280919202099597CE803F910505
:1019900009F093CEE0916B02F0916C02309709F45C
:1019A0008CCE6091960270E0762F6627809195022A
:1019B000682B6138710510F060E870E087E992E00B
:1019C00009957BCE8A3F910509F065CFE0917702BA
:1019D000F091780208C0883F910509F06ECEE09141
:1019E0007502F0917602309709F467CE099565CEBD
:1019F000833F9105A4F4E0916F02F091700230975B
:101A000009F45BCE809196028F77A0E88A9FC0018F
:101A10001124209195022F77822B09954ECE863F77
:101A20009105C9F6E0917302F0917402DCCF8C3F0E
:101A3000910529F4E0917B02F0917C02D4CF8C3F98
:101A400091052CF4E0917902F0917A02CCCF8E3F8F
:101A5000910529F4E0917D02F0917E02C4CF8F3F81
:101A6000910509F02ACEE0917F02F0918002BBCF70
:101A7000CF93DF93A0ECB1E013961C921E921297C5
:101A800048EE53E060E070E014964D935D936D93E3
:101A90007C93179784E091E011969C938E9385EC4C
:101AA00090E01D969C938E931C9784EC90E01F967B
:101AB0009C938E931E9780EC90E051969C938E930E
:101AC000509781EC90E053969C938E93529782ECC2
:101AD00090E055969C938E93549786EC90E05796A1
:101AE0009C938E93569759961C9259975A961C928E
:101AF0005A975B961C925B975C961C925C97EFE6FC
:101B0000F1E01682178210861186128613861486DB
:101B1000158616861786108A118A128A138A148AE5
:101B2000158AEDE5F2E0B5A3A4A316A217A210A6AC
:101B300015A614A617A616A68FEF9FEF91AB80AB44
:101B400093AB82AB83E08093910215AA17AA16AAE1
:101B500010AE11AE1092170380E8A7E9B2E0ED01D4
:101B600019928A95E9F711821082138212821582E6
:101B700014821782168211861086138612861586A5
:101B8000148617861686118A108A138A128A158A75
:101B9000148A178A168A118E108E138E128E158E45
:101BA000148E178E168E11A210A213A212A28DEB04
:101BB00091E00E9470048AEB91E00E94700487EB30
:101BC00091E0DF91CF910C947004E89409C097FBE9
:101BD0003EF490958095709561957F4F8F4F9F4F04
:101BE0009923A9F0F92F96E9BB279395F695879548
:101BF00077956795B795F111F8CFFAF4BB0F11F40B
:101C000060FF1BC06F5F7F4F8F4F9F4F16C08823B1
:101C100011F096E911C0772321F09EE8872F762FE7
:101C200005C0662371F096E8862F70E060E02AF028
:101C30009A95660F771F881FDAF7880F9695879514
:101C400097F908950E94350E0C94A60E0E94980EE6
:101C500038F00E949F0E20F0952311F00C948F0E07
:101C60000C94950E11240C94DA0E0E94B70E70F3AA
:101C7000959FC1F3950F50E0551F629FF001729F31
:101C8000BB27F00DB11D639FAA27F00DB11DAA1F40
:101C9000649F6627B00DA11D661F829F2227B00D8D
:101CA000A11D621F739FB00DA11D621F839FA00D18
:101CB000611D221F749F3327A00D611D231F849F68
:101CC000600D211D822F762F6A2F11249F575040BF
:101CD0009AF0F1F088234AF0EE0FFF1FBB1F661F3A
:101CE000771F881F91505040A9F79E3F510580F003
:101CF0000C948F0E0C94DA0E5F3FE4F3983ED4F30D
:101D0000869577956795B795F795E7959F5FC1F7A6
:101D1000FE2B880F911D9695879597F9089597F951
:101D20009F6780E870E060E008959FEF80EC089581
:101D300000240A94161617061806090608950024AA
:101D40000A9412161306140605060895092E039424
:101D5000000C11F4882352F0BB0F40F4BF2B11F498
:101D600060FF04C06F5F7F4F8F4F9F4F089557FDF7
:101D70009058440F551F59F05F3F71F04795880FF9
:101D800097FB991F61F09F3F79F087950895121690
:101D900013061406551FF2CF4695F1DF08C016163C
:101DA00017061806991FF1CF8695710561050894ED
:101DB0000895E894BB2766277727CB0197F9089504
:101DC000A1E21A2EAA1BBB1BFD010DC0AA1FBB1F3F
:101DD000EE1FFF1FA217B307E407F50720F0A21BB1
:101DE000B30BE40BF50B661F771F881F991F1A941E
:101DF00069F760957095809590959B01AC01BD0148
:101E0000CF010895052E97FB1EF400940E94190F30
:101E100057FD07D00E94E00E07FC03D04EF40C944F
:101E2000190F50954095309521953F4F4F4F5F4F7B
:101E3000089590958095709561957F4F8F4F9F4F36
:101E400008950E94340FA59F900DB49F900DA49FFC
:101E5000800D911D11240895B7FF0C94210F0E944D
:101E6000210F821B930B0895A29FB001B39FC00165
:101E7000A39F700D811D1124911DB29F700D811DB6
:101E80001124911D08950E94570F0C94A60E0E94D4
:101E90009F0E58F00E94980E40F029F45F3F29F001
:101EA0000C948F0E51110C94DA0E0C94950E0E9426
:101EB000B70E68F39923B1F3552391F3951B550B96
:101EC000BB27AA2762177307840738F09F5F5F4F0D
:101ED000220F331F441FAA1FA9F335D00E2E3AF04C
:101EE000E0E832D091505040E695001CCAF72BD064
:101EF000FE2F29D0660F771F881FBB1F26173707B5
:101F00004807AB07B0E809F0BB0B802DBF01FF27E6
:101F100093585F4F3AF09E3F510578F00C948F0E26
:101F20000C94DA0E5F3FE4F3983ED4F386957795F0
:101F30006795B795F7959F5FC9F7880F911D96959F
:101F4000879597F90895E1E0660F771F881FBB1FFB
:101F5000621773078407BA0720F0621B730B840BA8
:101F6000BA0BEE1F88F7E09508950E94BC0F6894A5
:101F7000B1110C94DA0E08950E94BF0E88F09F579D
:101F800098F0B92F9927B751B0F0E1F0660F771F9D
:101F9000881F991F1AF0BA95C9F714C0B13091F093
:101FA0000E94D90EB1E008950C94D90E672F782FB6
:101FB0008827B85F39F0B93FCCF386957795679558
:101FC000B395D9F73EF490958095709561957F4FC4
:101FD0008F4F9F4F08959F930E94F50F0F9007FC1E
:101FE000EE5F0C941E100C94950E0E94BF0ED8F359
:101FF000E894E0E0BB279F57F0F02AED3FE049EC82
:1020000006C0EE0FBB0F661F771F881F28F0B23A7D
:1020100062077307840728F0B25A620B730B840BB4
:10202000E3959A9572F7803830F49A95BB0F661F46
:10203000771F881FD2F790480C949A10EF93E0FF17
:1020400007C0A2EA2AED3FE049EC5FEB0E94431093
:102050000E94A60E0F90039401FC9058E8E8F0E06F
:102060000C94A6100E94980E38F00E949F0E20F04B
:1020700039F49F3F19F426F40C94950E0EF4E09574
:10208000E7FB0C948F0EE92F0E94B70E58F3BA1796
:10209000620773078407950720F079F4A6F50C947E
:1020A000D90E0EF4E0950B2EBA2FA02D0B01B9011D
:1020B00090010C01CA01A0011124FF27591B99F0BE
:1020C000593F50F4503E68F11A16F040A22F232FCA
:1020D000342F4427585FF3CF469537952795A7951A
:1020E000F0405395C9F77EF41F16BA0B620B730BC1
:1020F000840BBAF09150A1F0FF0FBB1F661F771F32
:10210000881FC2F70EC0BA0F621F731F841F48F4E6
:10211000879577956795B795F7959E3F08F0B0CF6F
:102120009395880F08F09927EE0F97958795089556
:102130009F3F31F0915020F4879577956795B7953B
:10214000880F911D9695879597F908959F938F9382
:102150007F936F93FF93EF939B01AC010E94220E3C
:10216000EF91FF910E94BA102F913F914F915F9193
:102170000C94220EDF93CF931F930F93FF92EF9255
:10218000DF927B018C01689406C0DA2EEF010E9479
:10219000350EFE01E894A591259135914591559113
:1021A000A6F3EF010E944310FE019701A801DA9403
:1021B00069F7DF90EF90FF900F911F91CF91DF9122
:1021C0000895991B79E004C0991F961708F0961B93
:1021D000881F7A95C9F780950895EE0FFF1F059027
:1021E000F491E02D099481E090E0F8940C94F810BB
:0421F000F894FFCF91
:1021F4000000000012019505AA005901DB00B90096
:10220400CD00564D4450565F317C315F564D44509D
:10221400560D0A00564D4450455F003A323A007C50
:08222400005F564D44504500D7
:103800000C94341C0C94511C0C94511C0C94511CA1
:103810000C94511C0C94511C0C94511C0C94511C74
:103820000C94511C0C94511C0C94511C0C94511C64
:103830000C94511C0C94511C0C94511C0C94511C54
:103840000C94511C0C94511C0C94511C0C94511C44
:103850000C94511C0C94511C0C94511C0C94511C34
:103860000C94511C0C94511C11241FBECFEFD4E0BA
:10387000DEBFCDBF11E0A0E0B1E0E4EAFFE302C0AB
:1038800005900D92A230B107D9F712E0A2E0B1E0A5
:1038900001C01D92AD30B107E1F70E94361D0C94B6
:1038A000D01F0C94001C982F9595959595959595FE
:1038B000905D8F708A307CF0282F295A8091C0004B
:1038C00085FFFCCF9093C6008091C00085FFFCCFA0
:1038D0002093C6000895282F205DF0CF982F809167
:1038E000C00085FFFCCF9093C6000895EF92FF9231
:1038F0000F931F93EE24FF2487018091C00087FD62
:1039000017C00894E11CF11C011D111D81E4E8168B
:1039100082E4F8068FE0080780E0180770F3E09172
:103920000401F091050109958091C00087FFE9CF5E
:103930008091C6001F910F91FF90EF9008950E9413
:10394000761C982F8091C00085FFFCCF9093C60015
:1039500091362CF490330CF09053892F089597559D
:10396000892F08951F930E949F1C182F0E949F1C4F
:103970001295107F810F1F910895882351F0982F81
:1039800091508091C00087FFFCCF8091C6009923A1
:10399000B9F708951F93182F0E94761C803249F0C2
:1039A000809103018F5F809303018530C1F01F91E7
:1039B00008958091C00085FFFCCF84E18093C6000C
:1039C0008091C00085FFFCCF1093C6008091C0009D
:1039D00085FFFCCF80E18093C6001F910895E091A0
:1039E0000401F091050109951F9108950E94761C2C
:1039F000803241F0809103018F5F80930301853015
:103A000081F008958091C00085FFFCCF84E1809310
:103A1000C6008091C00085FFFCCF80E18093C60086
:103A20000895E0910401F09105010995089510921F
:103A30000A028823D1F090E040E951E02D9A28EE67
:103A400033E0FA013197F1F721503040D1F72D984A
:103A500028EE33E0FA013197F1F721503040D1F7E9
:103A60009F5F981758F380930A0208953F924F92F0
:103A70005F926F927F928F929F92AF92BF92CF92FE
:103A8000DF92EF92FF920F931F93CF93DF9300008B
:103A900083E38093C4001092C50088E18093C10045
:103AA00086E08093C2005098589A259A81E00E943F
:103AB000171D44E1F42E3EE1E32E24E9D22E96E0D8
:103AC000C92E80E1B82EAA24A39401E4902E16E515
:103AD000812EB2E57B2EA0E26A2EF9E45F2EE3E5AB
:103AE0004E2E70E5372E0E94761C8033B1F1813363
:103AF00009F441C0803409F479C0813409F48CC0E0
:103B0000823471F1853409F47BC0803531F182351E
:103B100021F1813511F1853509F48DC0863509F41F
:103B20009DC0843609F4AEC0843709F41BC18537C3
:103B300009F485C1863709F47AC0809103018F5F4B
:103B400080930301853079F6E0910401F09105013D
:103B500009950E94761C803351F60E94F61CC3CF53
:103B600093E18091C00087FFFCCF8091C60099232C
:103B7000A1F39150F6CF0E94761C8032F1F680912D
:103B8000C00085FFFCCFF092C6008091C00085FF89
:103B9000FCCF9092C6008091C00085FFFCCF809240
:103BA000C6008091C00085FFFCCF7092C600809156
:103BB000C00085FFFCCF6092C6008091C00085FFE9
:103BC000FCCF5092C6008091C00085FFFCCF409290
:103BD000C6008091C00085FFFCCF3092C600809166
:103BE000C00085FFFCCFB092C6007DCF0E94761C3E
:103BF000863808F4B2CF0E94761C0E94F61C73CF60
:103C000094E08091C00087FFFCCF8091C60099238B
:103C100009F4A3CF9150F5CF0E94761C8038D1F0E3
:103C2000813861F1823809F499C0883979F080E0EF
:103C30000E94CA1C58CF0E94761C809306010E94E5
:103C4000761C809307010E94F61C4DCF83E00E94F2
:103C5000CA1C49CF82E00E94CA1C45CF0E94761C34
:103C6000803309F486C192E08091C00087FFFCCFC9
:103C70008091C6009923D9F29150F6CF81E00E943D
:103C8000CA1C31CF0E94761C809309020E94761CC8
:103C90008093080280910C028E7F80930C020E9418
:103CA000761C853429F480910C02816080930C028B
:103CB0008091080290910902892B89F000E010E0C0
:103CC0000E94761CF801E85FFE4F80830F5F1F4F54
:103CD00080910802909109020817190788F30E9441
:103CE000761C803209F029CF80910C0280FFD1C070
:103CF0004091060150910701440F551F5093070151
:103D000040930601A0910802B09109021097C9F0F2
:103D1000E8E0F1E09A01BD016E0F7F1FF999FECF37
:103D200032BD21BD819180BDFA9AF99A2F5F3F4F34
:103D3000E617F70799F74A0F5B1F50930701409367
:103D400006018091C00085FFFCCFF092C6008091F3
:103D5000C00085FFFCCFB092C600C5CE80E10E94B6
:103D6000CA1CC1CE0E94761C809309020E94761C58
:103D7000809308028091060190910701880F991F96
:103D800090930701809306010E94761C853409F404
:103D90007AC080910C028E7F80930C020E94761C68
:103DA000803209F0A0CE8091C00085FFFCCFF09258
:103DB000C600A0910802B09109021097B9F1809154
:103DC0000C02182F1170082F0270E0910601F0917B
:103DD00007019F012F5F3F4FB90140E050E01123E1
:103DE000B1F4002339F494918091C00085FFFCCF99
:103DF0009093C6004F5F5F4FCB010196F9014A17C0
:103E00005B0780F4BC012F5F3F4F112351F3F999F9
:103E1000FECFF2BDE1BDF89A90B58091C00085FF5C
:103E2000FCCFE6CF70930701609306018091C0003C
:103E300085FDD9CE8091C00085FFF8CFD4CE0E94F9
:103E4000761C803209F079CE8091C00085FFFCCFCE
:103E5000F092C6008091C00085FFFCCFE092C600C2
:103E60008091C00085FFFCCFD092C6008091C00039
:103E700085FFFCCFC092C6008091C00085FFFCCFBB
:103E8000B092C60030CE80910C02816080930C020B
:103E900085CF809107018823880F880B8A21809322
:103EA0000B028091060190910701880F991F909352
:103EB0000701809306018091080280FF09C080916C
:103EC00008029091090201969093090280930802DA
:103ED000F894F999FECF1127E0910601F0910701BE
:103EE000C8E0D1E08091080290910902103091F46D
:103EF0000091570001700130D9F303E0009357009F
:103F0000E8950091570001700130D9F301E1009369
:103F10005700E89509901990009157000170013001
:103F2000D9F301E000935700E8951395103498F009
:103F300011270091570001700130D9F305E000937B
:103F40005700E8950091570001700130D9F301E165
:103F500000935700E8953296029709F0C7CF1030CA
:103F600011F00296E5CF11248091C00085FFE9CEC3
:103F7000ECCE0E94761C0E94761C182F0E94761CA4
:103F8000112351F0113021F086E00E94CA1CABCD04
:103F900084E90E94CA1CA7CD8EE10E94CA1CA3CD51
:043FA000F894FFCFC3
:023FA40080009B
:0400000300003800C1
:00000001FF